:020000040800F2
:10000000A00700209101000807210008251600081C
:1000100005210008EB04000853220008000000003E
:100020000000000000000000000000000B2100089C
:10003000ED04000800000000092100080D2100085F
:10004000AB010008AB010008AB010008AB010008E0
:10005000AB010008AB010008AB010008AB010008D0
:10006000AB010008AB010008AB010008AB010008C0
:10007000AB010008AB010008AB010008AB010008B0
:10008000AB010008AB010008AB010008AB010008A0
:10009000AB010008AB010008AB010008AB01000890
:1000A000AB010008AB010008AB010008712100089A
:1000B000AB010008AB010008AB010008AB01000870
:1000C000AB010008AB010008AB010008AB01000860
:1000D000AB010008AB010008AB010008AB01000850
:1000E000AB010008AB010008AB01000800F002F80A
:1000F00000F03FF80AA090E8000C82448344AAF183
:100100000107DA4501D100F034F8AFF2090EBAE880
:100110000F0013F0010F18BFFB1A43F0010318473B
:100120005042000070420000103A24BF78C878C1E5
:10013000FAD8520724BF30C830C144BF04680C60ED
:10014000704700000023002400250026103A28BF35
:1001500078C1FBD8520728BF30C148BF0B60704739
:10016000642900F07D80002070471FB51FBD10B5C9
:1001700010BD00F085F91146FFF7F7FF02F06EFAA7
:1001800000F0A3F903B4FFF7F2FF03BC00F0A6F9F7
:100190000948804709480047FEE7FEE7FEE7FEE71B
:1001A000FEE7FEE7FEE7FEE7FEE7FEE70448054957
:1001B000054A064B704700006F210008ED0000085B
:1001C000A0010020A0070020A0030020A003002021
:1001D0000FB41CB5074B06AA7B44694600900598EE
:1001E00000F02DF90020694600F03CF91CBC5DF8D8
:1001F00014FB0000890200002DE9F0410E46044680
:10020000002020622046E168884730B3252805D0C9
:10021000D4E901219047206A401CF2E7E1682046BA
:1002200000278847050018D0A5F14100192802D8F9
:1002300020354FF400673246294620462760FFF7F5
:100240008FFF40B1012804D0F61D26F007060836BE
:10025000D8E7361DD6E72846DAE7206ABDE8F08100
:100260002DE9F0410646002410687529314616A58F
:1002700010D0AFF30080002802DA404213A507E057
:1002800031688A0701D512A502E0490704D511A5F6
:10029000012401E0AFF3008000210A2206F12407C7
:1002A00009E0B0FBF2FCB0FBF2F302FB1C003030C3
:1002B00078541846491C0028F3D123462A46304674
:1002C000BDE8F04100F05CB8000000002D00000027
:1002D0002B0000002000000010B5431C02E010F8C5
:1002E000011B71B18107FAD14FF0013202C88C1A9B
:1002F0008C4314EAC211F9D0C01A0A0603D0C01EFA
:1003000010BDC01A10BD0A0401D0801E10BD090224
:10031000FCD0401E10BD4FF0000200B513469446BD
:100320009646203922BFA0E80C50A0E80C50B1F14D
:100330002001BFF4F7AF090728BFA0E80C5048BF61
:100340000CC05DF804EB890028BF40F8042B08BFFF
:10035000704748BF20F8022B11F0804F18BF00F8FB
:10036000012B704770477047704710B500F080F858
:10037000006810BD10B5044600F07AF8046010BDA6
:100380002DE9F0470D4699469246044600F12408AF
:100390000168880604D5E06921F01001216000E0C1
:1003A0000120A84201DD471B00E00027A1697A195E
:1003B00002EB0900081AA0612078C00602D420468A
:1003C000AFF30080002608E0D4E901211AF8060006
:1003D0009047206A401C761C20624E45F4DB207852
:1003E000C0060AD52046AFF3008006E0D4E901211B
:1003F00030209047206A401C2062381EA7F1010778
:10040000F4DC07E0D4E9012118F805009047206AE0
:10041000401C2062281EA5F10105F3DC2046AFF345
:1004200000802078000602D50220BDE8F087012078
:10043000FBE7000001694A1C02610878704700B5BB
:100440008FB0CDE901310021059105497944CDE90D
:10045000031011466846FFF7CFFE0FB000BD000045
:10046000E5FFFFFF0A6802F8010B0A607047000011
:1004700000487047400100200048704740010020BC
:100480007546FFF7F9FFAE4605006946534620F072
:100490000700854618B020B5FFF788FEBDE820406C
:1004A0004FF000064FF000074FF000084FF0000B30
:1004B00021F00701AC46ACE8C009ACE8C009ACE8E3
:1004C000C009ACE8C0098D46704710B50446AFF3CB
:1004D00000802046BDE81040FFF754BE01491820B7
:1004E000ABBEFEE7260002007047FEE7704772B61B
:1004F000FEE7000070B5044600F004F90546601CF4
:1005000002D004480078044400F0FCF8401BA042EC
:10051000FAD370BD340000202DE9F84FDFF8B89110
:100520000024A9F1040B23460F2709F1040AABF1BB
:10053000040EC9E00125A5402A40AA427DD1674E9C
:10054000D1F804C0ACEB0608B44532D014DCBCF1E1
:10055000030F3AD009DCBCF1000F2AD0BCF1010F27
:100560001CD0BCF1020F31D11DE0BCF1110F17D02E
:10057000BCF1120F2AD119E0B8F5881F19D006DC9A
:10058000B8F5803F15D0B8F5801F1FD111E0B8F540
:10059000001F0ED0B8F5041F18D10AE0CB6815E093
:1005A000CB681B1D12E0CB6808330FE0CB680C331F
:1005B0000CE08B682BB1012B4FF0080303D0456191
:1005C00004E0042302E0056100E00023FF2A01D8D3
:1005D000064601E000F104064FEA840501D9A5F1C1
:1005E0002005D6F8008007FA05FC28EA0C0803FA73
:1005F00005F548EA0508C6F800804D68ED0062D5AB
:10060000374DAE6946F00106AE61AD6924F00306D0
:1006100005F001050095334D06EB050CDCF808509C
:10062000A607360F07FA06F825EA0805DFF8B880AE
:10063000404503D14FF0000817E044E0DFF8AC80FC
:10064000404502D14FF001080FE0DFF8A48040459B
:1006500002D14FF0020808E0DFF89880404502D14F
:100660004FF0030801E04FF0040808FA06F848EAE2
:100670000508CCF808804D68D9F80060ED024D46B9
:1006800001D5164300E096432E604D68DAF800600D
:10069000AD02554601D5164300E096432E604D68E5
:1006A000DBF80060AD035D4601D5164300E09643DC
:1006B0002E604D68DEF80060ED03754601D51643E7
:1006C00000E096432E60641C0D682A46E5407FF4E6
:1006D00031AFBDE8F88F00000804014000001110A0
:1006E000001002400000014000080140000C0140E1
:1006F00000100140001401400AB101617047090473
:10070000FBE70000014880687047000034000020CB
:1007100070B5040025D094F83D00002520B984F878
:100720003C50204600F078FA242084F83D002068F0
:10073000016821F0010101602068016841F4004175
:1007400001602068016821F40041016000F0C0FBF5
:100750004D4A6168914201D84C4900E04C498842B9
:1007600001D2012070BD4B492368B0FBF1F15E68F6
:1007700026F03F060E435E606368934206D94FF44D
:10078000967359434FF47A73B1FBF3F12368491C14
:100790001E6A26F03F06314319626168914210D803
:1007A0004900401EB0FBF1F2521CC2F30B02042AB6
:1007B00001D2042022E0B0FBF1F0401CC0F30B009A
:1007C0001CE0A268F2B301EBC10303EB0116431E68
:1007D000B3FBF6F35B1C43F480431B0549D092B393
:1007E00001EBC10202EB0111401EB0FBF1F0401C15
:1007F000C0F30B0040F4804040F400402168CA6917
:100800004CF6FF739A431043C861D4E907100143C3
:100810002068026822F0C00211430160D4E903019C
:1008200001432068826848F2FF339A431143816094
:10083000D4E9050108432168CA6822F0FF02104389
:10084000C86001E00EE016E02068016841F0010197
:1008500001602564202084F83D00256384F83E5023
:10086000002070BD01EB4106431EB3FBF6F35B1C99
:10087000B3E70120C2E701EB4101401EB0FBF1F0FC
:10088000401CC0F30B00B7E7A086010080841E0067
:1008900000093D0040420F002DE9FF4F83B00025C5
:1008A000DDE910799A4693460446DDF848800095C4
:1008B000FFF728FF064694F83D0020287CD1192335
:1008C000012285492046009600F0C2FF0028F5D19C
:1008D00094F83C0001286FD0012084F83C00206887
:1008E0000168C90703D1016841F001010160206876
:1008F000016821F400610160222084F83D0040205D
:1009000084F83E0025646762A4F82A90608D2085F3
:100910007248E062CDE9008653465A462046049963
:1009200000F098FE00287DD1208DDFF8B4912027BB
:1009300068B1012814D00228206801681ED041F453
:10094000806101602068416980690090B6E020689C
:10095000416981690091016841F400710160ADE075
:100960002068016821F48061016072B620684169E5
:1009700081690091016841F400710AE041F400616D
:10098000016072B62068416981690091016821F4B3
:100990008061016062B691E0032868D801280CD01C
:1009A000022843464FF000024946204600960FD0E9
:1009B00000F04EFFB0BB10E08BE0324641462046CF
:1009C00000F0ECFF70BB20680069616A08706CE0A1
:1009D00000F03EFF30BB72B634E02068016821F4BD
:1009E0008061016072B620680069616A0870606A9F
:1009F000401C6062208D401E2085608D401E6085F9
:100A0000384846F2A8110068B0FBF1F0C0EBC00016
:100A100000EB80000090401E009008D020684069E4
:100A2000C04300E029E040070CD50098F3E744F804
:100A3000305F6773A573206940F02000206162B6C3
:100A400025731AE02068016841F400710160206894
:100A50000069616A0870606A401C6062218D491EED
:100A60002185618D491E618562B621681BE0324691
:100A70004146204600F092FF18B1012007B0BDE8C2
:100A8000F08F20680069616A0870606A401C6062CB
:100A9000218D491E2185618D491E618521684A6924
:100AA000D24352070AD409690170606A401C60622F
:100AB000208D401E2085608D401E6085208D002881
:100AC0007FF46AAF84F83D7084F83E5084F83C505F
:100AD000D4E70220D2E70000020010000000FFFF70
:100AE00004000100400000202DE9FF4F83B09A462A
:100AF000DDE9119793460446DDF84080FFF702FEDA
:100B0000054694F83D0020287FD119230122404951
:100B10002046009500F09CFE002876D194F83C0019
:100B2000012872D0012084F83C0020680168C907C0
:100B300003D1016841F0010101602068016821F4DE
:100B400000610160212084F83D00402084F83E00CF
:100B500000262664C4F82480A4F82A90608D20859D
:100B60002C48E062CDE9007553465A462046049968
:100B700000F0EEFD70B930E02A463946204600F01C
:100B800045FF58B1206C042804D12068016841F465
:100B900000710160012007B0BDE8F08F606A216834
:100BA00000780861606A401C6062218D491E89B22C
:100BB0002185628D521E628522685369DB435B0783
:100BC0000BD469B100781061606A401C6062208DAE
:100BD000401E2085608D401E6085208D0028CBD171
:100BE0002A463946204600F007FE0028CAD154F8AC
:100BF0003D0B016841F400710160202004F81E09DA
:100C0000E67766770020C6E7FFE70220C3E700002B
:100C1000020010000000FFFF10B586B00021009117
:100C200001910291039100680F4988421AD10F4C3B
:100C3000A06940F00800A061A069694600F00800C2
:100C40000490C020009012200190032003900848D7
:100C5000FFF762FCE06940F40010E061E06900F435
:100C60000010049006B010BD005400400010024077
:100C7000000C01400248816802781144816070478D
:100C800034000020074810B5016841F010010160F0
:100C9000032000F075F80F2000F006F800F024F8AB
:100CA000002010BD0020024070B50D4D04464FF4E9
:100CB0007A712878B1FBF0F00A490968B1FBF0F0CD
:100CC00000F0CCFA48B9102C07D200222146501E61
:100CD00000F036F800206C6070BD012070BD00008F
:100CE00034000020400000200C4808B5816941F024
:100CF00001018161816901F001010091C16941F047
:100D00008051C161C06900F0805000900448416882
:100D100021F0E06141F00071416008BD0010024027
:100D200000000140002809DB00F01F020121914072
:100D30004009800000F1E020C0F800117047000079
:100D4000F0B40E4B1B680C46C3F30223C3F1070536
:100D5000042D00D90425191D072901D2002300E024
:100D6000DB1E012606FA05F1491E214099409E40EE
:100D7000761E16403143F0BC01F080BA0CED00E065
:100D8000064900F0070208684FF6FF03184040EAE2
:100D90000220034A10430860704700000CED00E099
:100DA0000000FA052DE9F0470F46050061D0434EDB
:100DB000306800F00700B84209D2306820F0070020
:100DC00038433060306800F00700B84251D12868DD
:100DD0003B4C810712D5400703D5606840F4E060C2
:100DE00060602878000703D5606840F46050606058
:100DF0006068A96820F0F000084360602878C007A8
:100E000028D06868012810D02168022810D08907EE
:100E100000292EDA616821F0030101436160FFF7C8
:100E200071FC804641F288390DE021688903EFE7C3
:100E30008901EDE7FFF766FCA0EB0801494502D9FF
:100E40000320BDE8F0876068696800F00C00B0EB33
:100E5000810FEFD1306800F00700B8420BD930683D
:100E600020F0070038433060306800F00700B842D7
:100E700001D00120E5E72878400705D56068E968DA
:100E800020F4E060084360602878000706D56068B9
:100E9000296920F4605040EAC100606000F028F841
:100EA0006168084AC1F30311515CC84006490860F3
:100EB00006480068FFF7F8FE0020C2E70020024065
:100EC000001002402C4200084000002038000020A2
:100ED0000448054900684968044AC1F30221515C8D
:100EE000C840704740000020001002403C4200080B
:100EF0000E4A51680E4801F00C03042B11D0082B48
:100F00000FD10C48C1F38343C903C05C0AD55168B3
:100F1000084AC1F34041921E515C054A5043B0FB60
:100F2000F1F0704704494843704700000010024048
:100F300000127A001C42000800093D002DE9F84F1C
:100F4000040070D02078C04DC00749D06868C0F355
:100F50008100012807D06868C0F38100022809D108
:100F60006868C00306D52868800339D56068002802
:100F7000E7D035E06068B0F5803F0BD010B1B0F538
:100F8000A02F11D0286820F480302860286820F431
:100F9000802002E0286840F480302860606890B1CA
:100FA000FFF7B0FB06460AE0286840F4802028607E
:100FB000F0E700BFFFF7A6FB801B642873D8286802
:100FC0008003F7D50CE0FFF79DFB064605E000BF68
:100FD000FFF798FB801B6428F0D828688003F7D4BB
:100FE00020789A4E80074FF001094FF0000839D55C
:100FF000686810F00C0F07D06868C0F38100022801
:1010000009D16868C00306D42868800714D5206910
:10101000012808D110E02069B0B1C6F80090FFF7B0
:1010200071FB074605E00AE1FFF76CFBC01B0228D5
:10103000C4D828688007F7D52868616920F0F800CF
:1010400040EAC10028600DE0C6F80080FFF75AFBB7
:10105000074604E0FFF756FBC01B022823D8286888
:101060008007F7D4207800072CD57948A169D9B139
:10107000C0F80090FFF746FB074604E0FFF742FB8D
:10108000C01B02280FD8686A8007F7D571484FF453
:10109000FA510068B0FBF1F0009000BF0098411ECB
:1010A0000091FAD20EE080E0C0F80080FFF72AFB42
:1010B000074604E0FFF726FBC01B022875D8686AC4
:1010C0008007F7D42078400760D5E8690027C00082
:1010D00008D4E86940F08050E861E869012700F031
:1010E000805000905C480168C90513D401688346AC
:1010F00041F480710160FFF705FB824606E000BF06
:10110000FFF700FBA0EB0A0064284ED8DBF80000D4
:10111000C005F5D5E06801280AD008B1052813D02C
:10112000286A20F001002862286A20F0040002E00A
:10113000286A40F001002862E06841F2883B98B1DB
:10114000FFF7E0FA82460BE0286A40F004002862CC
:10115000EEE700BFFFF7D6FAA0EB0A0159455AD8CF
:10116000286A8007F6D50CE0FFF7CCFA824605E046
:10117000FFF7C8FAA0EB0A0159454CD8286A800746
:10118000F6D41FB1E86920F08050E861E06988B3C7
:101190006968C1F38101022944D00228C6F8608041
:1011A00004D0FFF7AFFA044638E034E0FFF7AAFABC
:1011B000074604E0FFF7A6FAC01B02282BD82868D0
:1011C0008001F7D4206AB0F5803F05D16868A16836
:1011D00020F4003008436860D4E9080108436968D6
:1011E00021F4741108436860C6F86090FFF78AFA2A
:1011F000044606E025E000BFFFF784FA001B022842
:1012000009D828688001F7D51BE000BFFFF77AFAFC
:10121000001B022802D90320BDE8F88F286880014E
:10122000F4D40EE00128F7D06868226A00F4803117
:10123000914204D1616A00F47010884201D001200B
:10124000EAE70020E8E70000001002400000424208
:1012500080044242400000200070004010B5401E53
:10126000B0F1807F01D3012010BD4FF0E024606118
:101270000F21601701F002F80020A0610720206113
:10128000002010BD7047704770B590F83C20012ACF
:1012900026D0012480F83C40022280F83D200368DB
:1012A0005A689D6822F070060A6832435A600D4BF6
:1012B00002689A4208D0B2F1804F05D00A4B9A4298
:1012C00002D00A4B9A4204D1496825F080031943A1
:1012D000916080F83D40002180F83C10084670BDC8
:1012E000022070BD002C01400004004000080040B6
:1012F00010B5040003D094F83D0010B107E00120C0
:1013000010BD002084F83C00204600F01FF80220A9
:1013100084F83D00211D206800F030FF012084F892
:10132000460084F83E0084F83F0084F8400084F8CA
:10133000410084F8420084F8430084F8440084F8B3
:10134000450084F83D00002010BD000008B500688D
:101350000B49884212D10B48816941F400618161D7
:101360008069002200F40060009011461B20FFF706
:10137000E7FCBDE808401B20FFF7D4BC08BD000017
:10138000002C01400010024090F83D10012901D0CE
:1013900001207047022180F83D1000680B49884207
:1013A00008D0B0F1804F05D00949884202D00949E0
:1013B000884204D1816801F00701062903D0016841
:1013C00041F001010160002070470000002C014045
:1013D000000400400008004070B5044690F83C004E
:1013E0000025012817D0012684F83C60022084F8EB
:1013F0003D002068826822F0770222F47F428260FA
:101400000868502838D00DDC20284FD005DC90B378
:10141000102811D14AE0022070BD302846D0402863
:101420000AD13BE060282FD070280DD0B0F5805F46
:1014300003D0B0F5005F12D0012584F83D60002094
:1014400084F83C00284670BDCB68D1E901212068B2
:1014500000F0CAFE2068816841F0770109E0CB689E
:10146000D1E90121206800F0BFFE2068816841F4C5
:1014700080418160E1E719E0CA684968206800F0AE
:10148000C5FE5021206806E0CA684968206800F05F
:10149000CEFE6021206800F0B1FECEE7CA68496840
:1014A000206800F0B3FE40212068F4E7226801467E
:1014B0001046F0E7704770B50446006801694FF0C8
:1014C0000005C943890715D4C168C943890711D4E8
:1014D000E91E01610120207720688069800720468D
:1014E00002D0FFF7E7FF04E000F098F8204600F094
:1014F00096F8257720680169C943490717D4C16860
:10150000C943490713D46FF0040101610220207719
:101510002068806910F4407F204602D0FFF7CAFFA0
:1015200004E000F07BF8204600F079F82577206889
:101530000169C943090716D4C168C943090712D410
:101540006FF008010161042020772068C0698007DE
:10155000204602D0FFF7AEFF04E000F05FF820461F
:1015600000F05DF8257720680169C943C90617D4E2
:10157000C168C943C90613D46FF010010161082086
:1015800020772068C06910F4407F204602D0FFF722
:1015900091FF04E000F042F8204600F040F8257783
:1015A00020680169C943C90708D1C168C943C9078F
:1015B00004D1891E0161204600F032F820680169DB
:1015C000C943090609D4C168C943090605D46FF0A7
:1015D000800101612046FFF755FE20680169C9437B
:1015E000490609D4C168C943490605D46FF04001D2
:1015F0000161204600F015F820680169C943890699
:101600000BD4C168C943890607D46FF0200101617A
:101610002046BDE87040FFF736BE70BD704770478A
:1016200070477047FEE701684A69D24352050FD4FC
:101630006FF480624A61002140F8301F202242731B
:101640008173026942F00402026101730120704754
:10165000002070472DE9F84F0446006889460B9D2D
:1016600001689846174641F480610160206801686E
:1016700041F48071016000954FF0011B0022594632
:1016800020460A9B00F0E4F84FF4007A40B120684D
:101690000068C00501D5C4F840A00320BDE8F88F5C
:1016A000216809F0FE0008612B46284920460A9A65
:1016B00000F016F9F0BB20684169806900902A4665
:1016C00020460A9900F0A2F940B1206C04283AD1D2
:1016D0002068016841F40071016034E0FEB2B8F1A5
:1016E000010F09D02168380A08612A4620460A9964
:1016F00000F08CF90028E8D1206806612A462046CF
:101700000A9900F083F90028DFD12068016841F4CC
:101710008071016000950022594620460A9B00F026
:1017200097F80028B3D1216809F0FF0040F00100CC
:10173000086100E007E02B46044920460A9A00F0C1
:10174000CFF80028AAD00120A8E70000020001007D
:101750002DE9F843044600680D46DDE90897016865
:101760009846164641F4807101604B4600224FF0C6
:1017700001112046009700F06BF848B1206800681E
:10178000C00502D54FF4007020640320BDE8F88343
:10179000216805F0FE0008613B464A46154920468F
:1017A00000F09EF888B920684169806900903A4647
:1017B0004946204600F02AF948B1206C042804D19B
:1017C0002068016841F4007101600120DEE7F5B294
:1017D000B8F1010F09D02168300A08613A4649463C
:1017E000204600F013F90028E7D1206805610020A9
:1017F000CCE700000200010070B516460D46044615
:101800001EE02046FFF70FFF08B1012070BD681CE5
:1018100016D0FEF777FF801BA84200D885B9206854
:101820004069C04340070BD5002044F8300F202109
:101830006173A073216941F0200121612073E4E705
:1018400020684069C0434007DBD4002070BD000021
:101850002DE9F047984617460D460446C1F3074662
:10186000DDF820902AE000BFB8F1FF3F26D0FEF758
:1018700049FFA0EB0901414502D8B8F1000F1DD185
:101880002068012E16D0806925EA00000004000CB3
:1018900012D00020B84211D1002044F8300F20218E
:1018A0006173A073216941F020012161207301203F
:1018B000BDE8F0874069E7E70120EBE72068012EEB
:1018C0000AD0806925EA00000004000C06D0002040
:1018D000B842C9D00020EBE74069F3E70120F7E701
:1018E0002DE9F047984616460D4604464FF000098C
:1018F0004FF0200AC1F3074723E020684069C04346
:10190000400515D42068016841F400710160216828
:101910006FF480604861C4F8309084F83DA084F88A
:101920003E90216C41F00401216484F83C9021E058
:10193000701C06D0FEF7E6FEA0EB0800B04203D80C
:1019400016B1012F1FD021E02068012F15D080692A
:1019500025EA00000004000C18D000BF44F8309FB6
:1019600084F80DA084F80E90216941F020012161D6
:1019700084F80C900120BDE8F087406925EA00005A
:101980000004000CEAD12068406901E02068806909
:1019900025EA00000004000CAFD1ECE72DE9F0418E
:1019A000002590460E460446202728E04069C043A3
:1019B000C0060CD454F8301B6FF01000486144F896
:1019C00010596777A577206A2062257714E0FEF723
:1019D00099FEA0EB0800B04200D886B920684069A3
:1019E000C04340060BD544F8305F6773A573206988
:1019F00040F02000206125730120BDE8F0812068BF
:101A00004169C9434906D1D40020F6E770B51646AE
:101A10000D4604461EE02046FFF705FE08B10120F2
:101A200070BD681C16D0FEF76DFE801BA84200D862
:101A300085B920684069C04300060BD5002044F8F2
:101A4000300F20216173A073216941F020012161D1
:101A50002073E4E720684069C0430006DBD400201F
:101A600070BD10B500F014F8332000F0CFFD322027
:101A700000F0CCFD282000F0C9FD012000F0C6FDDB
:101A80000C2000F0C3FDBDE81040062000F0BEBDF4
:101A9000F0B585B0314800240294816941F0040119
:101AA0008161816901F004010491816941F00801BB
:101AB0008161816901F008010491816941F010019F
:101AC00081618069012500F0100004900220CDE9B9
:101AD0000005234F0326694603963846FEF71CFD92
:101AE0000820CDE90005CDE9024669463846FEF7F3
:101AF00013FD0420CDE90005CDE9024669463846CC
:101B0000FEF70AFD002204213846FEF7F5FD1020FD
:101B1000CDE90005CDE9024669463846FEF7FCFCF2
:101B20002020CDE90005CDE9024669463846FEF79A
:101B3000F3FC4020CDE90005CDE902466946384670
:101B4000FEF7EAFC8020CDE90005CDE902466946B2
:101B50003846FEF7E1FC05B0F0BD00000010024081
:101B60000008014031B14030C0B240F0800000BFF9
:101B700000F04CBD40F08000FAE770B50546002447
:101B800004E0285D00F056FD641CE4B22846FEF730
:101B9000A3FBA042F5D870BD2DE9F04186B0012429
:101BA000642504A88DE8310023467522D0212848F9
:101BB000FEF772FE9DF81000682846D103AE8DF83E
:101BC0000C40009601236B22D0212148CDE901452C
:101BD000FEF78AFF07208DF80C00009601231922DA
:101BE000D0211B48CDE90145FEF77EFF08278DF87F
:101BF0000C70009601231C22D0211548CDE9014527
:101C0000FEF772FF4FF005088DF80C800096012357
:101C10001D22D0210E48CDE90145FEF765FF8DF864
:101C20000C70009601231B22D0210948CDE9014503
:101C3000FEF75AFF8DF80C80009601231A22D0215E
:101C40000348CDE90145FEF74FFF06B0BDE8F0813E
:101C5000A40000202DE9F0478CB00446684600F04F
:101C600005F9049802F01CF84FF0804900224B4619
:101C700000F048FD06460D46039802F011F80022D8
:101C80004B4600F03FFD32462B4601F07FFA01F053
:101C900025FA06460D46029802F002F832462B4617
:101CA00001F030FB00F072FB654E0022334601F07C
:101CB000E7FCDFF89081644B424601F023FB01F022
:101CC00033FA6060049801F0EBFF00224B4600F00D
:101CD00019FD07460D46029801F0E2FF00224B462F
:101CE00000F010FD3A462B4601F050FA01F0F6F9EB
:101CF00007460D46039801F0D3FF3A462B4601F004
:101D000001FB00F043FB0022334601F0B9FC4246E0
:101D10004E4B01F0F7FA01F007FAA060FEF7F2FC73
:101D20004B4E3188401A01F05CFC0022494B01F017
:101D3000E9FAC6E9040107460D46089801F0B0FF2C
:101D40003A462B4601F09CFC80468946E06801F04B
:101D5000A7FF42464B4601F019FA01F0E5F9E060B1
:101D6000079801F09DFF3A462B4601F089FC80461A
:101D70008946206901F094FF42464B4601F006FA7D
:101D800001F0D2F92061099801F08AFF3A462B460A
:101D900001F076FC07460D46606901F081FF3A4686
:101DA0002B4601F0F3F901F0BFF96061FEF7AAFCE0
:101DB0003080606801F074FF274EDFF8A080324663
:101DC000434601F05DFC07460D46E06801F068FF00
:101DD000DFF88C904FF0663A52464B4601F050FCCB
:101DE0003A462B4601F0D2F901F09EF9A061A068B5
:101DF00001F056FF3246434601F042FC06460D46CE
:101E0000206901F04DFF52464B4601F039FC324645
:101E10002B4601F0BBF901F087F9E06160692062AF
:101E20000A9802F08DF800B202F0A6F80D4901F010
:101E3000C5FF0D4901F060FF20600CB0BDE8F087E0
:101E400000806640B9162D40DB2A09C0DB2A094014
:101E50000000002000408F409A9999999999A93FD4
:101E60006666EE3F0000AA43B81E12422DE9F04715
:101E700088B0044664220E2103A88DE807000123E0
:101E80003B22D0215648FEF707FDBDF80C0040BAB2
:101E900000B220808146BDF80E0040BA00B26080DA
:101EA0008246BDF8100040BA00B2A0808046BDF85E
:101EB000120040BA00B202F05FF8A062BDF8140050
:101EC00040BA07B2A782BDF8160040BA06B2E68251
:101ED000BDF8180040BA05B22583484601F06AFBF8
:101EE0006FF00C094A4602F052F901F01DF9A060AA
:101EF000504601F05FFB4A4602F049F901F014F93F
:101F0000E060404601F056FB4A4602F040F901F01D
:101F10000BF920613348B0F90210202904DA491C7A
:101F2000418008B0BDE8F087402909DA82883A4448
:101F30008280C2883244C28002892A440281EEE74C
:101F40001ED1B0F904104FEAE17201EBD2614FEA01
:101F500061118180B0F906104FEAE17201EBD261A4
:101F60004FEA6111C180B0F908104FEAE17201EB4C
:101F7000D2614FEA611101814FF0410141800BE0D4
:101F80008188A7EB0101A182C188A6EB0101E18252
:101F90000089A5EB00002083B4F9140001F00AFBCE
:101FA000114D00222B4601F0ADF901F0BDF8E061C2
:101FB000B4F9160001F0FEFA00222B4601F0A2F956
:101FC00001F0B2F82062B4F9180001F0F3FA00222F
:101FD0002B4601F097F901F0A7F86062A1E7000035
:101FE000A4000020000000200060504030B585B003
:101FF000002418480094019402940394816941F0EC
:1020000020018161816901F020010491816941F021
:1020100004018161816901F004010491816941F049
:102020000801816180690C4D00F0080004900022D5
:10203000FE212846FEF760FBFE2000900120CDE93E
:1020400001040220039069462846FEF765FA05B0B0
:1020500030BD000000100240000801400D4810B5DE
:102060000B4901600C49416000214FF480428160BE
:10207000C0E9031241618161C1610162FEF748FB61
:10208000002803D0BDE81040FEF731BA10BD0000B3
:1020900000540040A4000020A086010010B586B0C6
:1020A0000024174800940194029403940494134963
:1020B000059401604721C0E9011440F2E731C0E90D
:1020C000031444618461FFF713F908B1FEF70FFAB6
:1020D0004FF48050009069460948FFF77DF908B138
:1020E000FEF705FA049404A905480594FFF7CCF817
:1020F000002801D0FEF7FBF906B010BD002C01400E
:10210000F8000020FEE7FEE770477047FEF7B2BD1B
:1021100030B58FB028216846FEF7FDF814210AA8D3
:10212000FEF7F9F801210804CDE90010002402941B
:1021300002250491CDE907504FF4E010099068465C
:10214000FEF7FCFE08B172B6FEE70F20CDE90A05E6
:102150004FF48060CDE90C4002210AA80E94FEF7EE
:1021600021FE002801D072B6FEE70FB030BD7047E7
:102170000148FFF7A0B90000F8000020F0B50268A0
:10218000164B174C174D4FF08047984205D0B84278
:1021900003D0A04201D0A84203D122F070064A68C1
:1021A0003243984205D0B84203D0A04201D0A842A1
:1021B00003D122F44074CA6822434C6922F08002A1
:1021C000224302608A68C2620A688262984201D130
:1021D0000969016301214161F0BD0000002C01404B
:1021E000000400400008004010B5846842EA032261
:1021F00024F47F440A432243826010BD826822F0A7
:1022000070020A4342F007018160704710B5036A0B
:10221000046A24F001040462846924F0F00444EAAE
:10222000021423F00A020A438461026210BD10B551
:10223000036A046A24F010040462846923F0A00392
:1022400024F4704444EA023243EA011182610162DB
:1022500010BDFEE7490050EAC12018BF04204A0D16
:1022600018BF40F0010040F2FF72B2EB515F08BFAF
:1022700040F00200012808BF052070470907090E39
:10228000002804DB00F1E02080F80014704700F023
:102290000F0000F1E02080F8141D70472DE9F04197
:1022A0004F1E00EBC7010446D1E9000115461E464A
:1022B00037F006020DD02A46334601F0E1F97F1EC1
:1022C00004EBC703D3E9002300F060FF37F00602F8
:1022D000F1D1022F25D0042F13D0062F18BFBDE84F
:1022E000F0812A46334601F0CBF9D4E90A2300F005
:1022F0004DFF2A46334601F0C3F9D4E9082300F024
:1023000045FF2A46334601F0BBF9D4E9062300F025
:102310003DFF2A46334601F0B3F9D4E9042300F027
:1023200035FF2A46334601F0ABF9D4E9022300F029
:102330002DFF2A46334601F0A3F9D4E90023BDE876
:10234000F04100F023BF000000221346104601496F
:1023500000F0D8BF0000F03F012201F018BF00F0EC
:1023600015BF002213461046114600F0CBBF40F2C5
:10237000013200204FF0E04101F009BF024A002085
:10238000110701F004BF000001FDFFFF2DE9F84F28
:1023900004460D4621F0004000917349814211DC52
:1023A0007249884201DC06D12CB120462946BDE89D
:1023B000F84FFFF7D1BF6E48002DCCBF6D496E4975
:1023C000BDE8F88F6D49814211DD6D498142D8BF6A
:1023D0004FF0FF366DDD20462946FFF73BFF04280E
:1023E00008BFFFF7CBFF20462946BDE8F88F6549B7
:1023F000654F25F00045814233DD6449814219DD96
:10240000002632464FF080432046294600F0BEFEAB
:1024100080468A4601222046294601F0B8FE002265
:102420003B4601F053FB4246534600F06BFF044627
:102430000D463EE001260022BA463B46204629468C
:1024400000F0A4FE80460F4600225346204629464F
:1024500001F03CFB42463B4600F054FF04460D466B
:1024600027E04B4981421BDDDFF828A1022600222C
:1024700053462046294601F003F900223B4600F06E
:1024800085FE80460F46002253462046294601F02D
:102490001DFB42463B4600F035FF04460D4608E072
:1024A000032622462B4600203B4900F02BFF044622
:1024B0000D4622462B461046194601F0E1F88B46A0
:1024C000824602460B4601F0DBF8074602463348D7
:1024D00088460B4606217844FFF7E0FE52465B46ED
:1024E00001F0CEF882462E488B463A4643460521F7
:1024F0007844FFF7D3FE3A46434601F0C1F802465E
:102500000B46002E504659460CDA00F03FFE22469C
:102510002B4601F0B5F801B022462B46BDE8F04F3E
:1025200001F0E2B900F032FE22462B4601F0A8F895
:102530001C4A7A4402EBC603D3E9002301F0C6FA31
:1025400022462B4601F0C2FA174A7A4402EBC60330
:10255000D3E9002301F0C8F9009A002AB8BF81F03E
:102560000041BDE8F88F0000000010440000F07F3B
:10257000182D4454FB21F93FFB21F9BF0000DC3F3B
:102580000000203E0000F33F0000F03F0000E63F67
:10259000008003400000F83F0000F0BFD61D00009F
:1025A000941D0000321D0000FA1C00002DE9F041CE
:1025B000144D0F468046002405F108060EE000BFCA
:1025C00028FA04F0C00735F8141056F8240017D084
:1025D0005FF00102FEF790F8641CE4B2BC42EFD356
:1025E000094C012208212046FEF786F80120FDF75C
:1025F00081FF2046BDE8F04100220821FEF77CB8AB
:102600000022E7E71C0000200008014010B5044646
:10261000002202210648FEF76FF820090421FFF787
:10262000C5FF04F00F00BDE810400421FFF7BEBF56
:102630000008014010B50446012202210648FEF7B9
:102640005BF820090421FFF7B1FF04F00F00BDE89B
:1026500010400421FFF7AABF00080140FEF712FB5B
:10266000FFF756FDFFF7C2FCFFF7F8FCFFF716FD7A
:102670001D48FEF789FEFFF78FFAFFF7F2F90024F5
:102680001A4F1B4D4FF4FA764FF4967A4FF001092A
:10269000A0461648FFF7EAFB5046FDF72BFF13480C
:1026A0002C30FFF7D7FAB7F90400011B09B2B14289
:1026B00007DD297839B96988491C698085F8009057
:1026C00001E085F80080044600210846FFF74AFA39
:1026D00006486A8807A11038FDF77AFD03481038CC
:1026E000FFF74BFAD5E70000F80000205400002067
:1026F0001800002053746570733A20256420202050
:10270000200000002DE9F04D1D460C4698B01746FC
:1027100021F0004123F00043002814BF4FF0010CCA
:102720004FF0000C0CEB440CFE4A0CEB02064FEA97
:10273000620C66452BD33E0018BF012606EB45060A
:102740001644F94A964222D3F84A53EA070C02D0BB
:10275000944205D148B918B000201146BDE8F08D6B
:10276000002808BF4FF0000C01D04FF0010C0CEB1B
:10277000440212F5001F0AD8002F14BF4FF0010CBD
:102780004FF0000C0CEB450212F5001F07D918B0F2
:102790003A462B462146BDE8F04DFFF7E0BD00224A
:1027A000DFF88CA3002CB8BF534526DADFF884C3CA
:1027B0006345A8BF022220DADFF870C39C451CDC09
:1027C000DFF874C30CEB235CBCF1140F08DDCCF113
:1027D000340627FA06FC0CFA06F6BE420DD108E0D4
:1027E0005FB9CCF1140623FA06FC0CFA06F69E42F9
:1027F00003D10CF00102C2F1020251EA000C19D11E
:10280000002D17DA002C18BF022A01D0012A07D0A8
:102810000220FDF7AFFD18B0BDE8F04DFFF794BD05
:102820000220FDF7A7FDFFF78FFD18B081F00041F2
:10283000BDE8F08DB7F1000C6CD1534525D104F102
:10284000804212F5801201BF00280020B74918B05D
:1028500008BFBDE8F08DB548884207DC002DA1BF58
:102860006046294618B0BDE8F08D07E0281E05DA5D
:1028700080F0004118B06046BDE8F08DAF49794462
:10288000D1E9000118B0BDE8F08DDFF8A0C26345C2
:1028900025D1002D1FDA19B1514512D1D8B909E05F
:1028A000002840F0EC82A24A214618B062F31E01D3
:1028B000BDE8F08D0020214618B060F31E01BDE890
:1028C000F08D08DA18B02346BDE8F04D024600202E
:1028D000614600F017BD18B02146BDE8F08D5145A6
:1028E00018DAB5F1804F0DD0A5F1005CBCF1FF5CAA
:1028F00010D1B4F1000C0DDB18B06146BDE8F04D0D
:1029000000F0ECBB234618B00246BDE8F04D194676
:1029100000F0B6BE060024F0004C3BD1D9B15145C1
:1029200033D1002C06DD002DA1BF0020514618B088
:10293000BDE8F08D002C01DD002D1BDB002C13DA2F
:10294000002D11DB012A4FF0000014BF78497C49AB
:1029500018B0BDE8F08D022A18BF002C0AD0012A59
:1029600008D1002C06DA0AE0002CB8BF002D11DADD
:10297000012A04D0002018B00146BDE8F08D18B03F
:1029800000204FF00041BDE8F08DA1F14050B0F1C2
:102990007F601AD0012000EBE47050EA020421D0DD
:1029A000624C521E4FF0000B104304BF4FF0000B5F
:1029B000644C654883427CDD644A654893421FDD70
:1029C000884217DB002D25DB37E0002C00DA4AB106
:1029D000022A0CBF01204FF0FF3018B0BDE8F04DC7
:1029E00000F0E8BD0120FDF7C5FC18B0BDE8F04DD2
:1029F000FFF7B7BC4D4A8A4202DC002D0ADC1CE01E
:102A0000814202DA002D18DA04E0484B994220DDB9
:102A1000002D12DD0220FDF7ADFCFFF7A8FC0546F6
:102A20000E46002253465846214600F029FE18B0B3
:102A300066F31E012846BDE8F08D0220FDF79AFCE2
:102A4000FFF79CFC0A46214618B062F31E01BDE860
:102A5000F08D00223046614601F038F880460E467F
:102A60006FF0010201F093FB4FF05532394B00F04B
:102A70003BFF4246334600F003FE0022364B00F097
:102A800033FF82464246334604911046194600F011
:102A9000F7FD5246049B00F0F3FD8A4600904FF08C
:102AA000C0422E4B4046314600F0EAFD2C4A2B4BEB
:102AB00000E027E0CDE906015146009800F0E0FD76
:102AC00082460191274A284B4046314600F0D8FD06
:102AD0005246019B00F0FAFF82460B4602460591E2
:102AE000DDE9060100F052FBDDE9062300268846F9
:102AF000304600F0EBFF5246059B00F0F5FE024623
:102B000000F07EB90020B1F5801F07DA352230468B
:102B1000614601F03CFB06466FF0340000EB2150AB
:102B200024E00000FFFF1F00FFFF0F000000F03F48
:102B30000000F07F0000404301FCFFFFE61A0000A8
:102B40000000F0FF0000F0BF0000E0410000F04393
:102B5000FFFFEF3F5555D53F0000E03F4715F73FDA
:102B6000FE822B6544DF5DF80BAE543EA0F2FF30D1
:102B70000190C1F3130040F07F6141F04051029198
:102B8000FE498842D8BF002004DDFD498142C8BF0C
:102B9000012001DD0D9008E000200D900198401CFF
:102BA00001900298A0F5801002900299F5487844AF
:102BB0000B910D9900EBC100D0E900230F93304633
:102BC0000A920B9900F082FFCDE90601DDE90A21A6
:102BD00030460F9B00F0DAFA02460B460020EA4925
:102BE00000F090FB059102460B460090DDE90601DE
:102BF00000F046FD1490E5488A464FF000087844FE
:102C00000299006812904FF0005040EA61010D985F
:102C10000F9B01EB804000F5002109910A9A129860
:102C200000F054FF32460B9B00F05EFE42465346D6
:102C300000F026FD0646029140465146099B129A35
:102C400000F01EFDDDE9062300F04EFE3246029B39
:102C500000F03CFF059B009A00F012FD0091149AD1
:102C6000049053461046194600F00AFD06460246F7
:102C7000C7480B46029106217844FFF70FFBCDE9C8
:102C80000510029B32461046194600F0F9FCDDE9BA
:102C9000053200F0F5FC05910646534640461946BC
:102CA000149A00F073FA009B049A00F0E9FC324693
:102CB000059B00F06BFACDE90510424653461046DD
:102CC000194600F0DDFC0022B24B02910A9000F0A0
:102CD0005DFADDE9053200F059FA0E464246AD4B89
:102CE000404600F0F3FE029B0A9A00F0EFFEDDE999
:102CF000053200F0F9FD424602910A903346104633
:102D0000514600F0BDFCCDE906015346149A0299E4
:102D10000A9800F0B5FC8A46029033464246009974
:102D2000049800F0ADFC5346029A00F02FFA824658
:102D30000B4602460591DDE9060100F027FADDE9C0
:102D4000062300208846064600F0C0FE5246059B3A
:102D500000F0CAFD824609914FF060428E4B30462A
:102D6000414600F08DFC049006918C4A8A4B5046F7
:102D7000099900F085FC82460291894A894B3046C8
:102D8000414600F07DFC5246029B00F0FFF9864B65
:102D90007B440D9A03EBC203D3E9002300F0F6F95C
:102DA0000E900791019800F005FC0591DDE90613EE
:102DB00082460E9A049800F0E9F97C4A7A440D9B09
:102DC00002EBC303D3E900230093029200F0DEF983
:102DD0005246059B00F0DAF90026884652463046F6
:102DE000059B00F073FE009B029A00F06FFE069BAD
:102DF000049A00F06BFE079B0E9A00F075FD0246E8
:102E000000200B4602903846294600F039FC8246E5
:102E100001912B4638461946029A00F057FE324679
:102E2000434600F02DFC5246019B00F0AFF90746E7
:102E30008A46324643462946029800F021FC054660
:102E40000E463A46534600F0A1F9594A8846914247
:102E500021DBA8EB020353EA000210D12A463346D5
:102E600000F034FECDE90401524A534B3846514636
:102E700000F08CF9DDE9042300F000FD21D20220EE
:102E8000FDF778FAFFF773FA0A46214618B062F3A5
:102E90001E01BDE8F08D494B28F000429A4210D344
:102EA000474A08EB020353EA00027FF4C6AD2A4604
:102EB000334600F00BFE3A46534600F0DFFC7FF647
:102EC000BCAD0022019228F000403E493E4A01EB91
:102ED0002051824223DA481C4FF4801121FA00F07D
:102EE00040443A4AC0F30A517A44394BA1F2FF31C7
:102EF000CB4020EA0303C0F3130040F48010C1F17B
:102F00001401C84012680190B8F1000FBCBF4042E4
:102F100001902846314600F0D9FD05460E462A4666
:102F200033463846514600F031F94FF0000842462A
:102F3000284B4046059100F0A3FBCDE90601264A47
:102F4000264B4046059900F09BFB009102902A46D3
:102F500033464046059900F0B9FD3A46534600F025
:102F6000C3FC1F4A1F4B00F08BFB009B029A00F032
:102F70000DF90746884602460B4635E08E98030059
:102F80007AB60B002E1700000000F03F6617000015
:102F9000941600000000084009C7EE3FFD033ADC2C
:102FA000F5015B14E02F3EBE6C15000030150000EB
:102FB00000009040FE822B654715973C00CC904066
:102FC00000346F3F01FCFFFF0000E03F7C14000075
:102FD000FFFF0F00432EE63F396CA80C615C20BE5A
:102FE000EF39FAFE422EE63FDDE9060100F0CEF8A9
:102FF000DDE9062305460E4600F068FD3A464346E5
:1030000000F072FC0F462A463346009010461946DF
:1030100000F036FB824602462E4888460B460521C4
:103020007844FFF73BF95246434600F029FB2A4615
:10303000334600F059FC80468A463B4628463146D6
:10304000009A00F01DFB3B46009A00F09FF80691A5
:10305000009000224FF080434046514600F036FD7C
:103060000F460C90424653462846314600F008FB76
:103070003B460C9A00F046F9069B009A00F026FDAC
:103080002A46334600F022FD0022134B00F02CFCB0
:10309000054601980E4601EB00510815002810DC8A
:1030A00028463146019A01F072F8FFF7D3F8042858
:1030B00008BFFFF763F928463146019A01F067F827
:1030C00005460B4618B02A4658462146BDE8F04D45
:1030D00000F0D6BA1C1300000000F03F2DE9F041CB
:1030E00006460F4600F00CFC041E0D4618BF0120DA
:1030F000284320F00040C0F17F6000F1E040C00FA5
:103100000ED0301C18BF0120384320F00040C0F121
:103110007F6000F1E040C00F04BF0120FDF72AF9F5
:1031200020462946BDE8F08121F00042A2F160521C
:10313000B2F5801F01F0004328BFD2F17F6C0BD99C
:103140005FEA001C43EAC20242EB507018BF7047AE
:1031500028BF20F001007047B2F5801FBCBF1846A1
:1031600070474FEA410C1CF5001F02D2084600F0E0
:1031700061BF70B500F02EFB00000089FFF7F6BFBD
:103180004FF00040A0F580007047000010B591EAB4
:10319000030F48BF83F0004300F1A084841A71EB51
:1031A000030C05D2121943EB0C03001B61EB0C015D
:1031B000DFF824E14FEA1154A4EB135C1EEA430F3D
:1031C00018BF9EEA445F73D023EA0E03DCF1200EA1
:1031D00021EA045143F4801332D322FA0CFE10EB9F
:1031E0000E0023FA0CFE41EB0E01CCF1200E03FA87
:1031F0000EFE10EB0E0051F10001B1F5801FCCF175
:10320000200E32D201EB045112FA0EF2BDE810404A
:1032100058BF7047401C38BF5FEA420218BF704772
:10322000002814BF20F0010041F100014FEA4103E2
:1032300013F5001F38BF7047A1F1C04100F018BB63
:10324000012A43EB0302ACF1200CDCF11F0E32BF6C
:103250004FF0000E23FA0CF310EB030041EB045186
:10326000B4EB115FD0D0A1EB045101F580114908F6
:103270005FEA300001EB04510ED350F1000038BF7B
:1032800012FA0EFE08D1BDE81040C9E7401C38BF55
:103290005FEA4202CAD1C3E7BDE810404FEA4103EA
:1032A00013F5001F38BF7047A1F1C04100F0E0BA2C
:1032B0009EEA445F08D011EA5E0FBDE8104004BFEB
:1032C00001F0004100207047BDE8104070B500F0EB
:1032D00081FA00BF64FBBE3E0000E0FF02494FF0F0
:1032E000000000F022BF00BF0000F87F491058BF67
:1032F000C1F140415B1058BFC3F140438B42EFF333
:10330000008070472DE9C04130B4DFF8A0C23CEA2C
:10331000111418BF3CEA131400F0EC8081EA030595
:103320001CEA111444EAD57418BF1CEA131500F006
:10333000C780A4EB05044FF0004545EAC12145EAEA
:10334000C32341EA505143EA525304F17F74994236
:1033500004F500344FEAC0204FEAC22208BF904271
:1033600000F09C804FEA13650FF24016765D4FEA3D
:10337000134506FB05F7C7F1807706FB07F74FEA11
:10338000D737A7FB03687642C8F58038A7FB06CE7F
:1033900038BFA8F1010807FB08E64FF0000EA6FBB6
:1033A000028CE6FB03CEDCF1000CCEF1004E38BF00
:1033B000AEF1010EA6FB0C584FF000074FF00005D0
:1033C000E6FB0E87A1FB08C6A0FB07CE16EB0E0698
:1033D00045F10005E1FB076515F1E04E7EBFA4F560
:1033E00080345FEA46066D4116F1800745F100051D
:1033F0004FEA17274FEA066647EA0567A6F1DE4659
:10340000B6F1805F4FEA15251FD9384624F0010C2C
:1034100005EBC471BCF1FE6F01EB0C1102D8F0BCDE
:10342000BDE8008124425CBF01F5801E9EEAC47F96
:1034300002D4F0BCBDE80081244238D4F0BCA1F134
:10344000C041BDE8004100F013BA4FEAD22242EA7F
:1034500043524FEAD323A7FB02864FEAD02040EA2B
:10346000415007FB03661EEA0E0F4FEAD12105FB10
:10347000026658BFA6EB0056B6EB00564FEA520E56
:103480004EEAC37E18EB0E0E56EB530EBDD518EB6D
:1034900002085E417F1C55F10005B6E74FF4801528
:1034A0004FF000074FF000064FF00008ADE7F0BC0A
:1034B0004FF0000001F1C04101F00041BDE8008182
:1034C00011EA0C1F0CEA131500D00CE013EA0C1FD4
:1034D00000F025804FF00000F0BC81EA030101F00C
:1034E0000041BDE80081F0BCBDE8004181EA030174
:1034F00000F0BEB9F0BCBDE8004170B500F06AF95B
:10350000097EFC3E00F007B881EA03014FF000009D
:1035100001F00041704781EA030100F0A9B9F0BC55
:10352000BDE800414FF0000021497047FFFDFBF965
:10353000F7F5F4F2F0EEEDEBE9E8E6E4E3E1E0DEE6
:10354000DDDBDAD8D7D5D4D3D1D0CFCDCCCBCAC858
:10355000C7C6C5C4C2C1C0BFBEBDBCBBBAB9B8B77F
:10356000B6B5B4B3B2B1B0AFAEADACABAAA9A8A872
:10357000A7A6A5A4A3A3A2A1A09F9F9E9D9C9C9B40
:103580009A999998979796959594939392919190EB
:103590008F8F8E8E8D8C8C8B8B8A8989888887877C
:1035A0008685858484838382828181800000FF07F1
:1035B0000000F87F10F0004248BF4042B0FA80F3AC
:1035C00010FA03F10AD0C3F11D0303F580634FEA3B
:1035D000415002EB035202EBD12170474FF0000043
:1035E0007047B0FA80F310FA03F10AD0C3F11D035B
:1035F00003F580634FEA41504FEA035202EBD121B9
:1036000070474FF00000704751EA030C17D41CF5C7
:10361000801F58BFBCF5801F00F10680994218BF7B
:10362000704708BF9042704707D711F5801F58BFF9
:1036300013F5801F19D499427047894270471CF5D1
:10364000801F08D5BCF5801FF7D58B4218BF704787
:1036500008BF824270474FF4001C1CEB410F38BF7B
:103660001CEB430F01D28B42704770B500F0B2F8EB
:10367000922449004FF000514FF08053FFF736BEBF
:10368000DFF848C170B51CEA111E1EBF1CEA1315F5
:103690009EEA0C0F95EA0C0F00F06F8081EA03049C
:1036A00023EA4C134EEAD47E21EA4C1141F48011F6
:1036B00043F48013AE44A1FB024CA0FB0365AEF1C2
:1036C0007F7E361955EB0C05A1FB034C4CF1000332
:1036D000A0FB021C16EB0C06654153F100030942E6
:1036E00018BF46F0010613F4007F0BD14FEA0331F7
:1036F0004FEA0530340341EA155140EA16506FF0A5
:1037000003020AE04FEAC3214FEAC520F40241EA6E
:10371000555140EA56506FF0020202EB2E4201EB87
:10372000025585EACE710AD05FEA440C18BF24F036
:10373000004450F1000041F1000120EAD47040F251
:10374000FE7C624500D270BDA84214BF4FF0804499
:103750004FF04044002E08BF0024BEF1806FA8BF88
:10376000A1F1C041BDE8704080F282804FF00000BE
:1037700001F1C04101F0004170479EEA0C0F0CEAD4
:10378000131518BF95EA0C0F06D04FF0000081EA20
:10379000030E0EF0004170BD00F01CF88900013EE0
:1037A00000F007B800F009B84FEA430C5FEA5C5C30
:1037B00008D081EA030100F05BB84FEA410C5FEAF0
:1037C0005C5CF6D14FF00000014970470000FF0734
:1037D0000000F87F0EF1020E2EF0030E5EF8046B6F
:1037E000364205D4012A43EB030515F5001F12D814
:1037F000012841EB010C1CF5001F0CD80ED14FEA3B
:10380000D17C15F5001F0CEB4C0C0CF1020C08BF21
:103810004CEBD37C04E04FF0080C01E04FEAD37C82
:103820000CEB4C0526FA05F606F00706B6F1040C7B
:1038300006D20EEB860CBDE870404CF0010C6047E0
:10384000DFE80CF0090B02024FF000414FF00000DE
:10385000A1F5002170BD19461046012851EB010465
:1038600018BFD4F5001484BF002001F0004170BDE2
:103870000808A0F500114FEA3101704753EA010C26
:1038800017D41CF5801F58BFBCF5801F00F10680BF
:103890008B4218BF704708BF8242704707D713F5A5
:1038A000801F58BF11F5801F19D48B4270479B426F
:1038B00070471CF5801F08D5BCF5801FF7D59942CD
:1038C00018BF704708BF904270474FF4001C1CEBB4
:1038D000430F38BF1CEB410F01D2994270470FB420
:1038E0000CBC03BCFFF7C1BE91EA030F10B581F019
:1038F00000413FF553AC83F0004300F0EFB8000007
:103900002DE9F04101F5801CBCF5001FC0F2C38019
:103910004FEA115C21EA0C510CF1FD0C41F48011CD
:103920005FEA5C0C0CF5C07C01D3400049413DA42A
:10393000890241EA905187028E0E0A0CA45D04FBB5
:1039400004F602FB06F6C6F14046A4FB0662F60D3D
:1039500046EA422606FB06F4A4FB01235242C3F1C9
:10396000404338BF5B1EA6FB02420024E6FB032453
:10397000D20B42EA4446A6FB0623A1FB02E2A3FBCC
:1039800007E4A4184FF0000252F10002E3FB0142E9
:103990006442C2F1404E38BFAEF1010EA6FB0423D3
:1039A0004FF00002E6FB0E32A2FB03464FF000048C
:1039B000B61954F10004E2FB0264A1FB06E6A4FB85
:1039C00007E816EB08064FF0000858F10008E4FB82
:1039D00001687642C8F1405838BFA8F10108A2FB3F
:1039E00006E4A3FB08E52D194FF0000454F1000490
:1039F000E2FB0854A1FB05E6A7FB04E818EB060868
:103A00004FF0000656F10006E1FB048618F1200590
:103A100056F10006A809A8F11B08B10908F03F08F3
:103A2000B8F10A0F40EA86601CD901EB0C51BDE8E1
:103A3000F08100BFFCF5EEE8E2DDD8D3CFCBC7C301
:103A4000C0BDB9B6B4B1AEACA9A7A5A3A19F9D9BBB
:103A50009A9896959392908F8D8C8B89888786857E
:103A600084838281A0FB006800FB01F208EB42081E
:103A7000B8EB872807D5341858EB0104D5D5401C7E
:103A800051F10001D1E7341A78EB0104CDD4401E86
:103A900071F10001C9E75FEA4C0C5FEA9C5C0DD153
:103AA00005D34FF0000001F00041BDE8F081BDE812
:103AB000F04170B5FFF78EFE6DDBFFBEBDE8F04153
:103AC0004FF00000004970470000F87F10B591EA00
:103AD000030F48BF83F000433FF560AB841A71EBDE
:103AE000030C07D212198CF0004C43EB0C03001BA3
:103AF00061EB0C01DFF8A4E14FEA1154A4EB135C75
:103B00001EEA430F18BF9EEA445F00F0B08023EA2C
:103B10006E03524221EA0451C3EB6E0338BF5B1EB1
:103B2000DCF1200E25D322FA0CFE10EB0E0043FA36
:103B30000CFE41EB0E01CCF1200E03FA0EFE10EB51
:103B40000E0051F10001CCF1200E29D412FA0EF230
:103B500001EB0451BDE8104058BF7047401C1CBF2A
:103B6000B2F1004F704700280CBF491C20F0010043
:103B7000704712EB020E43EB030218BF4FF0010E29
:103B80004EEA4202ACF1200CDCF11E0E54D943FA8D
:103B90000CFE10EB0E0051F1FF31CCF11E0ED5D50D
:103BA0000EF1010E12FA0EFE404141EB010101EB54
:103BB000445C5FEA5C5C10D910EBDE7001EB0451F1
:103BC00038BFBEF1004FBDE8104018BF7047002855
:103BD0000CBF491C20F00100704730D24FEAD42CB2
:103BE00011F5001124F400641BD0B1FA81F20B3AF4
:103BF000A41AA41ED2F12003914030FA03F3194312
:103C0000904001EBCC71002C01EB0451BDE8104059
:103C1000A8BF704701F1C0414FF0000001F0004122
:103C20007047B0FA80F310FA03F100D110BDE41A26
:103C3000173C4805C90AE4E701EB045110BD4910DF
:103C400001EB0451BDE810404FEA300002E04FF0B4
:103C5000000170474A0008BF0042F8D0B2F5001FCB
:103C600028BF704701F000414FF0000070479EEA06
:103C7000445F07D011EA5E0FBDE8104004BF002189
:103C800000207047BDE8104070B5FFF7A3FD00BFEE
:103C900040DFF63E83F00041104670470000E0FF31
:103CA00043004FEAD30C4FEA3C0C43401FBF400790
:103CB0000CF1605113F0FE4F70471CF0006F03D100
:103CC00000200CF0004170470CF0004343EA5070B4
:103CD00010B540EACC0000F067F900BF0000009288
:103CE0004FEA0001FFF7C4BD4FF000414FF0000064
:103CF000A1F500217047000090EA010F48BF81F054
:103D0000004100F1A481421A3CBF801A89184FEA91
:103D1000D0524FF07F4C1CEA410FA2EBD15318BF99
:103D20009CEA026F00F03B804FF0004C4CEA002010
:103D30004CEA012121FA03FC10EB0C0C1ED202F11B
:103D4000FF325FEA1C2040EBC25038BF70471CF0C6
:103D50007F0F4FEA400C18BFBCF17F4F38BF704750
:103D6000C3F12003994008BF20F00100BCF17F4F50
:103D700038BF7047A0F1C04000F05CB94FEA3C008A
:103D8000000A40EBC25028BF1CF0FF0F4FEA400C66
:103D9000E6D018BFBCF17F4F38BF7047EAE79CEA16
:103DA000026F05D010EA5C0F08BF00F000407047BA
:103DB00010B500F0F9F800BF64FBBE3E4FF47F0C75
:103DC0001CEAD0121EBF1CEAD11392EA0C0F93EA30
:103DD0000C0F00F0858090EA010F48BF42F480721A
:103DE00040F4000C41F400002CF07F4120F07F40B3
:103DF00000B58142A2EB03020FF2081CACEB504E5F
:103E0000C0F100009EF800E04FEA4E0E00FB0EFCF1
:103E100038BF49004FEA2C1C02F5FA020CFB0EF3E6
:103E20004FEACE1E4FEA112C4FEAC1210EEB635E22
:103E300042EB22420EFB0CFC4FEA1C5300FB031129
:103E40004FEA112C4FEA01310EFB0CFC4FEADC4C1F
:103E500000FB0C11C14228BF09184CEB03335DF87D
:103E600004EB10EB410143EBC250B2F57C0F38BFBD
:103E7000704729D512F0F00F1CBF00F1C04000F0D0
:103E800000407047008182838485868788898B8C77
:103E90008D8E8F919293959697999A9C9D9FA0A2B3
:103EA000A3A5A7A8AAACAEB0B2B3B5B7B9BCBEC003
:103EB000C2C5C7C9CCCED1D4D7D9DCDFE2E6E9ECA4
:103EC000F0F3F7FAFE0000004FEA400C0CF1807CA2
:103ED000BCF17E4F28BF7047B0F1C04000F0AAB8D7
:103EE00090EA010F0CEAD11348BF42F48072624598
:103EF00038BF634507D213F47F0F16D080EA010064
:103F000000F00040704710B500F04EF8097EFC3E0E
:103F100000F005B880EA010000F00040704780EA38
:103F2000010000F0004000F085B812F47F0F04BFDC
:103F30000248704780EA010000F07CB80000C07FB2
:103F400041000B0ED3F19E0208D950F400034FEA52
:103F5000032323FA02F048BF4042704710B500F037
:103F600023F800BF49922480002070476FF0004280
:103F700082EA20007047000010F0004148BF404234
:103F8000B0FA80F310FA03F2C3F19D030BD051EAAB
:103F9000C35101EB1220530638BF704700F10100F6
:103FA00008BF20F0010070470EF1020E2EF0030E44
:103FB0005EF8044B244204D44FEA4102B2F17F4F31
:103FC00011D84FEA4003B3F17F4F0CD80ED14FEA1E
:103FD000D07CB2F17F4F0CEB4C0C0CF1020C08BF03
:103FE0004CEBD17C04E04FF0080C01E04FEAD17CAF
:103FF0000CEB4C0324FA03F404F00704B4F1040CB2
:1040000006D20EEB840CBDE810404CF0010C60476A
:10401000DFE80CF0070802024FF00040A0F5800036
:1040200010BD0846420018BFD2F1807288BF00F070
:10403000004010BDFF2141EAD050C005704700008C
:1040400090EA010F48BF81F000413FF55CAE421A93
:1040500004D882F00042A0EB020011444FEAD05293
:104060004FF07F4C1CEA410FA2EBD15318BF9CEAE2
:10407000026F4AD04FF0004C4CEA00204CEA01217C
:1040800021FA03FCB0EB0C0C0FD412F0FE0F36D06B
:104090005FEA4C001DD5001240EBC25038BF70479C
:1040A0001CF03F0F18BF70470BE0A2F101025FEA5E
:1040B0001C2040EBC25038BF70471CF07F0F18BF68
:1040C0007047C3F12003994014BF401E20F0010047
:1040D000704780084FEA122308BF7047B0FA80FC8F
:1040E000A2EB0C02CCF1280C60FA0CF093EA122F30
:1040F00004BF00EBC25070474FEAC3707047130A09
:104100005FEADC1008BF7047F6E79CEA026F04D054
:1041100010EA5C0F08BF0020704710B5FFF744FF9E
:1041200040DFF63E81F0004070470CF00F03092B92
:1041300008BF082000F059800A2B0BD0082B18BFAD
:10414000704708BF1CF0400F0AD04FF000004FF03E
:10415000000170471CF0400F18BF4FF0004070473F
:104160001CF0100F08D020F0704300F07F4242EAAC
:10417000D3014FEA4370704700F0604021F07F4266
:1041800042EA000201F07F4040EA727070474FF04F
:10419000FF0C4CF4E06C1CEA11531CBF9CEA030CAE
:1041A0009445C2BFDA4201EB02517047002B0DD09B
:1041B000BCF1000F0FD0002A01F00041A4BF41F074
:1041C000E04141F07F614FF00000704701F0004195
:1041D0004FF00000704750EA01334FF09B0C18BFBE
:1041E0004CF0806C7FF47AA870471CF4801F11D0CB
:1041F0001CF4E02F03D06FEACC31490070474FF038
:104200004050EFF3008222F0704242EA000282F353
:10421000008870474FF00000704701020203040558
:10422000060708090A0B0C0D0E0F10100000000005
:104230000000000001020304060708090000000056
:1042400001020304000000004FBB610567ACDD3FC5
:10425000182D4454FB21E93F9BF681D20B73EF3FAD
:10426000182D4454FB21F93FE2652F227F2B7A3C25
:10427000075C143326A6813CBDCBF07A8807703CDE
:10428000075C143326A6913CC4EB98999999C9BF51
:10429000711623FEC671BCBF6D9A74AFF2B0B3BF86
:1042A0009AFDDE522DDEADBF2F6C6A2C44B4A2BF46
:1042B0000D5555555555D53FFF8300922449C23FB2
:1042C0006E204CC5CD45B73F513DD0A0660DB13FE6
:1042D000EB0D76244B7BA93F11DA22E33AAD903FF8
:1042E000000000000000F03F000000000000F83F68
:1042F00000000000000000000000004003B8E23FA2
:10430000000000000000000006D0CF43EBFD4C3E53
:10431000033333333333E33FFFAB6FDBB66DDB3F48
:104320004D268F515555D53F01411DA96074D13F90
:1043300065DBC9934A86CD3FEF4E454A287ECA3F8A
:104340003E5555555555C53F93BDBE166CC166BF0C
:104350002CDE25AF6A56113FF16BD2C541BDBBBE05
:10436000D0A4BE726937663E000000000000000065
:1043700090430008000000204400000028010008CD
:10438000D4430008440000205C07000044010008FA
:10439000000000000000000000000000000000001D
:1043A00000000000000000000000000010002000DD
:1043B0004000800000080140000801400008014062
:1043C0000008014001000000100000000000000093
:0443D0000024F400D1
:04000005080000ED02
:00000001FF
